S00B0000414C552E7372656337
S11300000C942A000C9434000C9434000C943400A6
S11300100C9434000C9434000C9434000C9434008C
S11300200C9434000C9434000C9434000C9434007C
S11300300C9434000C9434000C9434000C9434006C
S11300400C9434000C9434000C9434000C9434005C
S11300500C94340011241FBECFE5D8E0DEBFCDBF21
S11300600E9436000C9487000C9400001ABA17BA48
S113007014BA8FEF81BB80E884BF84BF29B386B3F1
S113008093B3911103C0820F82BBF8CF913039F43E
S1130090922F981B281301C0906192BBEFCF92302E
S11300A019F4822382BBEACF933019F4822B82BBEA
S11300B0E5CF943021F4822B809582BBDFCF95303D
S11300C049F430E0A90102C0440F551F8A95E2F7B4
S11300D042BBD4CF963091F623FF10C040E050E0ED
S11300E0682F70E0461757073CF430E035952795A4
S11300F028604F5F5F4FF4CF22BBC0CF30E0A9012F
S113010002C0559547958A95E2F742BBB7CFF8945C
S1050110FFCF1B
S9030000FC
