:100000000C942A000C9434000C9434000C943400AA
:100010000C9434000C9434000C9434000C94340090
:100020000C9434000C9434000C9434000C94340080
:100030000C9434000C9434000C9434000C94340070
:100040000C9434000C9434000C9434000C94340060
:100050000C94340011241FBECFE5D8E0DEBFCDBF25
:100060000E9436000C94AB000C940000CF93DF93F9
:10007000CDB7DEB728970FB6F894DEBF0FBECDBF61
:1000800017BA11BA8FEF8ABB14BA80E884BF84BF55
:1000900080E090E0883091054CF4E1E0F0E0EC0F76
:1000A000FD1FE80FF91F10820196F4CFE6B320B3CD
:1000B0008E2F8F70E07FF0E0522F5F70A1E0B0E0F4
:1000C000AC0FBD1FA80FB11D3C91F295E295EF70EA
:1000D000EF27FF70EF2781E090E08C0F9D1FE80F66
:1000E000F91F908140E1949FC0011124832B8BBBA9
:1000F00022952F7083B3482F4270982F9470382F19
:10010000317080FF13C0442389F0E1E0F0E0EC0F90
:10011000FD1FE50FF11D20838FE926E831E08150B6
:1001200020403040E1F700C0000030E0992309F49E
:10013000BDCF332309F4BACF80E090E08830910539
:100140000CF0B4CFE1E0F0E0EC0FFD1FE80FF91F79
:0A01500010820196F3CFF894FFCF60
:00000001FF
