S01A0000496E737472756374696F6E204D656D6F72792E73726563CF
S11300000C942A000C9434000C9434000C943400A6
S11300100C9434000C9434000C9434000C9434008C
S11300200C9434000C9434000C9434000C9434007C
S11300300C9434000C9434000C9434000C9434006C
S11300400C9434000C9434000C9434000C9434005C
S11300500C94340011241FBECFE5D8E0DEBFCDBF21
S11300600E9436000C94F2000C940000CF93DF93AE
S1130070CDB7DEB7D2500FB6F894DEBF0FBECDBFFA
S113008017BA11BA8FEF8ABB84BB80E884BF84BFE0
S113009097EE998393E19A8327E92B832EE22C83AD
S11300A021E02D8340E24E8321E82F8323E2288739
S11300B020E4298724E12A8722ED2B879C8792E17B
S11300C09D8731E23E8792E79F8791E3988B21E5F4
S11300D0298B8A8B83E38B8B9C8B82E68D8B84E2CA
S11300E08E8B97E09F8B87E7888F998F8A8F2B8FD2
S11300F050E55C8F50EC5D8F4E8F44EB4F8F38A3EF
S113010039A335E13AA39BA38CA332EA3DA331E49E
S11301103EA39FA388A729A780E68AA780EF8BA781
S113012088E28CA750E080B390B320B340B330B3DF
S113013080FFF9CFE52FF0E0EE0FFF1F61E070E0E4
S11301406C0F7D1FE60FF71F80818BBB818185BB00
S11301505F5F91FF12C0E52FF0E03197EE0FFF1FB4
S1130160E60FF71F9081E18170E1979FC001112490
S1130170E295EF705E2F582B2BC022FF14C034FF82
S113018012C0E52FF0E03197EE0FFF1F81E090E001
S11301908C0F9D1FE80FF91F8181982F9F7083FD9D
S11301A0906F590F15C043FF13C034FD11C0E52FE4
S11301B0F0E03197EE0FFF1F61E070E06C0F7D1FE0
S11301C0E60FF71F9181892F8F7093FD806F580F71
S11301D07FE382E49FE0715080409040E1F700C0EB
S10B01E00000A1CFF894FFCF49
S9030000FC
