:100000000C942A000C9434000C9434000C943400AA
:100010000C9434000C9434000C9434000C94340090
:100020000C9434000C9434000C9434000C94340080
:100030000C9434000C9434000C9434000C94340070
:100040000C9434000C9434000C9434000C94340060
:100050000C94340011241FBECFE5D8E0DEBFCDBF25
:100060000E9436000C94A5000C94000017BA8FEF84
:1000700084BB8ABB80E884BF84BF86B3811105C07E
:1000800080E88BBB81E085BBF8CF813021F488ED1F
:100090008BBB15BAF2CF823021F48CEC8BBB15BA36
:1000A000ECCF833021F484ED8BBB15BAE6CF8430DE
:1000B00029F480E98BBB81E085BBDFCF853021F45B
:1000C0001BBA82E085BBD9CF863021F483EC8BBB91
:1000D00015BAD3CF873021F484E08BBB85BBCDCF5D
:1000E000883029F484E88BBB81E085BBC6CF89309A
:1000F00021F484EC8BBB15BAC0CF8A3029F488E890
:100100008BBB81E085BBB9CF8B3021F488EC8BBBF6
:1001100015BAB3CF8C3029F48CE88BBB81E085BB5A
:10012000ACCF8D3021F480E68BBB15BAA6CF8E30D4
:1001300021F480EC8BBB15BAA0CF8F3009F09DCF96
:0E01400084E08BBB88E085BB98CFF894FFCF9E
:00000001FF
