:100000000C942A000C9434000C9434000C943400AA
:100010000C9434000C9434000C9434000C94340090
:100020000C9434000C9434000C9434000C94340080
:100030000C9434000C9434000C9434000C94340070
:100040000C9434000C9434000C9434000C94340060
:100050000C94340011241FBECFE5D8E0DEBFCDBF25
:100060000E9436000C9483000C9400001ABA17BA50
:1000700014BA8FEF81BB80E884BF84BF29B386B3F5
:1000800093B3911103C0820F82BBF8CF913019F462
:10009000281B22BBF3CF923019F4822382BBEECF10
:1000A000933019F4822B82BBE9CF943021F4822B58
:1000B000809582BBE3CF953049F430E0A90102C0BE
:1000C000440F551F8A95E2F742BBD8CF9630B1F660
:1000D00023FF10C040E050E0682F70E0461757073C
:1000E0003CF430E03595279528604F5F5F4FF4CFA3
:1000F00022BBC4CF30E0A90102C0559547958A952F
:0A010000E2F742BBBBCFF894FFCF3B
:00000001FF
