:100000000C942A000C9434000C9434000C943400AA
:100010000C9434000C9434000C9434000C94340090
:100020000C9434000C9434000C9434000C94340080
:100030000C9434000C9434000C9434000C94340070
:100040000C9434000C9434000C9434000C94340060
:100050000C94340011241FBECFE5D8E0DEBFCDBF25
:100060000E9436000C94A5000C94000017BA8FEF84
:1000700084BB8ABB86B390E894BF94BF811105C04E
:1000800090E89BBB91E095BBF9CF813021F498EDCE
:100090009BBB15BAF3CF823021F49CEC9BBB15BA05
:1000A000EDCF833021F494ED9BBB15BAE7CF8430BC
:1000B00029F490E99BBB91E095BBE0CF853021F41A
:1000C0001BBA92E095BBDACF863021F493EC9BBB50
:1000D00015BAD4CF873021F494E09BBB95BBCECF2B
:1000E000883029F494E89BBB91E095BBC7CF893059
:1000F00021F494EC9BBB15BAC1CF8A3029F498E85F
:100100009BBB91E095BBBACF8B3021F498EC9BBBA5
:1001100015BAB4CF8C3029F49CE89BBB91E095BB19
:10012000ADCF8D3021F490E69BBB15BAA7CF8E30B2
:1001300021F490EC9BBB15BAA1CF8F3009F09ECF74
:0E01400094E09BBB98E095BB99CFF894FFCF5D
:00000001FF
