:100000000C942A000C9434000C9434000C943400AA
:100010000C9434000C9434000C9434000C94340090
:100020000C9434000C9434000C9434000C94340080
:100030000C9434000C9434000C9434000C94340070
:100040000C9434000C9434000C9434000C94340060
:100050000C94340011241FBECFE5D8E0DEBFCDBF25
:100060000E9436000C946C000C940000CF93DF9338
:10007000CDB7DEB760970FB6F894DEBF0FBECDBF29
:1000800017BA11BA81E18ABB14BA80E884BF84BF71
:1000900093B383B333B326B340B390FF08C0E1E01A
:1000A000F0E0EC0FFD1FE20FF11D90819BBB81FF83
:1000B000EFCF32FFEDCFE1E0F0E0EC0FFD1FE20FFC
:1000C000F11D40832FE986E891E021508040904067
:0C00D000E1F700C00000DCCFF894FFCF87
:00000001FF
