:100000000C942A000C9434000C9434000C943400AA
:100010000C9434000C9434000C9434000C94340090
:100020000C9434000C9434000C9434000C94340080
:100030000C9434000C9434000C9434000C94340070
:100040000C9434000C9434000C9434000C94340060
:100050000C94340011241FBECFE5D8E0DEBFCDBF25
:100060000E9436000C94AF000C940000CF93DF93F5
:10007000CDB7DEB7D2500FB6F894DEBF0FBECDBFFE
:1000800017BA8EEF81BB8FEF8ABB84BB80E884BF39
:1000900084BF97EE998393E19A8327E92B832EE21D
:1000A0002C8321E02D8340E24E8321E82F8323E23D
:1000B000288720E4298724E12A8722ED2B879C8743
:1000C00092E19D8731E23E8792E79F8791E3988B8B
:1000D00021E5298B8A8B83E38B8B9C8B82E68D8B2E
:1000E00084E28E8B97E09F8B87E7888F998F8A8F2A
:1000F0002B8F50E55C8F50EC5D8F4E8F44EB4F8F14
:1001000038A339A335E13AA39BA38CA332EA3DA3DC
:1001100031E43EA39FA388A729A780E68AA780EFA2
:100120008BA788E28CA786B3809BFECFE82FF0E0F8
:10013000EE0FFF1F21E030E02C0F3D1FE20FF31FF9
:1001400090819BBB918195BB8F5F3FE79AE126E051
:10015000315090402040E1F700C00000E5CFF89416
:02016000FFCFCF
:00000001FF
